:03000000020E6C81
:0C0E6C00787FE4F6D8FD758133020EB3E8
:100F6C002020202020692F702031202020202000DC
:100F7C002020202020692F702032202020202000CB
:100F8C002020207072656469637420202000636CDB
:100F9C0061737320313A00636C61737320323A00D1
:101031000408C2100000040C40A00000041040E0AD
:0E10410000000424000000000418000000005D
:100FAC00E4F5A0C282C280C2817F38FE12105712B3
:100FBC000FE87F067E00121057120FE87F0C7E00A0
:100FCC00121057120FE87F017E00121057120FE813
:070FDC007F807E0002105728
:090FE3007E001210577F047E000D
:100FEC00E4FDFCC3ED9FEC9E5015E4FBFA0BBB003B
:0F0FFC00010ABA01F8BB7EF50DBD00010C80E4BF
:01100B0022C2
:0710500075900F7F807E0008
:10105700C280C281D2828FA07F0A7E00120FECC2AB
:021067008222E3
:10106900D280C281D2828FA07F0A7E00120FECC289
:021079008222D1
:10100C008B308A318932AB30AA31A932120BBB60DA
:10101C00130532E5327002053114F9120BBBFF12C5
:05102C00106980E222C2
:080EF8008F338E328D318C30F6
:100F00007F301210697F2E121069E4FFFE7D207C75
:100F100041AB33AA32A931A8301208F8120AEDEF1A
:100F20002430FF121069E4FFFE7DC87C42AB33AA77
:100F300032A931A8301208F8120AED7C007D0A129D
:100F40000BD4ED2430FF121069E4FFFE7D7A7C445F
:100F5000AB33AA32A931A8301208F8120AED7C008E
:0C0F60007D0A120BD4ED2430FF02106952
:100C5700120FAC1210507BFF7A0F796C12100C7FB9
:100C6700887E13120FECAC90E4120AB98F2B8E2AF0
:100C77008D298C281210507BFF7A0F797C12100C6B
:100C87007F887E13120FECAC90E4120AB98F2F8E77
:100C97002E8D2D8C2C850B17850A16850915850831
:100CA70014AB17AA16A915A814C000C001C002C02A
:100CB70003AF2BAE2AAD29AC28AB0FAA0EA90DA8FE
:100CC7000C1208F8D003D002D001D0001208078F09
:100CD700178E168D158C14AB17AA16A915A814C054
:100CE70000C001C002C003AF2FAE2EAD2DAC2CABA0
:100CF70013AA12A911A8101208F8D003D002D00124
:100D0700D0001208078F178E168D158C14120A9EA5
:100D1700120E0AE4FBFA7980783F120807A804A9A3
:100D270005AA06AB07E4FFFE7D807C3F120A018F10
:100D3700278E268D258C24AB27AA26A925A824E44F
:100D4700FFFE7D807C3F1208038F1B8E1A8D198C46
:100D570018E4FFFE7D7A7C44AB27AA26A925A824A0
:100D67001208F8120AED8E228F237C007D64120B85
:100D7700D48E1C8F1DAE22AF237C007D64120BD452
:100D8700AA04AB057D0A7C00AF03AE02120BD48E1A
:100D97001E8F1F8A208B217F80120FE37BFF7A0F24
:100DA700799A12100CAF27AE26AD25AC24120EF897
:100DB7007FC0120FE37BFF7A0F79A312100CAF1BD2
:0B0DC700AE1AAD19AC18120EF880FE39
:10080000020B59E86480F8E933E83360110460F0C2
:10081000ED33EC337009E8FCE9FDEAFEEBFF22045E
:1008200060DED3EB9FEA9EE99DE8C2E78CF0C2F759
:1008300095F0400CE8CCF8E9CDF9EACEFAEBCFFB25
:10084000120B2485D0F05804700320D5B3E804704F
:10085000075002B2D5020B6392D5EC0460F7E4CCEA
:10086000C0E0C398F8603B94186008400DD0E0FBEE
:10087000020B3BE4FBFAC9FC8028E830E406E4C93B
:10088000FBE4CAFCE830E305E4C9CACBFCE8540742
:100890006010F8C3E913F9EA13FAEB13FBEC13FC4D
:1008A000D8F130F52FC3E49CFCEF9BFFEE9AFEEDF0
:1008B00099FDD0E0FBEF4E4D4C701222DB03020B92
:1008C00060EC2CFCEF33FFEE33FEED33FDED30E753
:1008D000EB020B3BEF2BFFEE3AFEED39FDD0E0FBD8
:1008E00050130BBB0003020B63ED13FDEE13FEEF81
:0808F00013FFEC13FC020B3BAB
:1008F800EC4D6011E8497017ED33EC3304600DE4FA
:10090800FCFFFEFD22E933E8330470F8020B5912AC
:100918000B2458046009E4CC2481500628500902AD
:100928000B63284003020B60C0E0EB4A7044B980B7
:1009380006D0E0FB020B4FEF4E701CBD8008EBFFAA
:10094800EAFEE9FD80EBE98DF0A4FEE5F00209E19D
:10095800E9CDF9EAFEEBFFEF89F0A4FCE5F0CE89DA
:10096800F0A42EFFE435F0CD89F0A42DFEE435F097
:100978008067EF4E7005BD80D780C3EF8BF0A4ACC5
:10098800F0EE8BF0A42CFCE435F0F8EF8AF0A42C00
:10099800E5F038FCE433CB8DF0A42CFCE5F03BF813
:1009A800EE8AF0A42CFCE5F038F8E433CF89F0A403
:1009B8002CFCE5F038CF3400CE89F0A42FFFE5F009
:1009C8003EFEE433C98DF0A42EFEE5F039CD8AF061
:1009D800A42FFFE5F03EFEE43DFD33D0E0FB5007D9
:1009E8000BBB000F020B63EC2CFCEF33FFEE33FE66
:0609F800ED33FD020B3B94
:1009FE00020B63EC5D046005E859047003020B59A9
:100A0E00120B24580460F6EC4860F2EC7004FDFE04
:100A1E00FF22C860DB2481C85009C39860025006CB
:100A2E00020B609850CAF582E9294B4A7005AB82D9
:100A3E00020B4F75F0007C1A7880C3EF9BEE9AED97
:100A4E0099400DC3EF9BFFEE9AFEED99FDE842F043
:100A5E00DC23ACF0D0E0FFD0E0FED0E0FDAB822096
:100A6E00E7101BEB60BAEC2CFCEF33FFEE33FEED20
:100A7E0033FD020B3BE803F830E705C0F075F000DC
:100A8E00EF2FFFEE33FEED33FD40B830E7C280AA04
:100A9E00ED33EC33600A047003BD8004ECB2E7FC66
:010AAE002225
:100AAF0075F020800E75F010800575F0087D007EC2
:100ABF00007F003392D530D503120C29EC33401050
:100ACF00EF33FFEE33FEED33FDEC33FCD5F0ED22CB
:0E0ADF00E5F0247EA2D513CC92E7CDCEFF2207
:100AED00EDD2E7CD33EC3392D524814006E4FFFE01
:100AFD00FDFC22FCE4CFCECDCC24E0501174FF8060
:100B0D00EDC3CC13CCCD13CDCE13CECF13CF0470FC
:070B1D00F030D5DE020C29C7
:100DD20033DA929E35B16011377FE5FE392184897D
:100DE2003AAEC3FF3C1D955B3D6358473E75FDF02F
:100DF2003F3172183F800000C2D5020B63020B59CB
:100E0200BD80FA50F3020B60ED33EC330460F17BEA
:100E12003B7AAA79B8783F1208F8ED33EC3392D5D1
:100E2200247B5011A2D570DB500BED44802404507A
:100E320004A2D580CEEFFBEEFAEDF9ECF8120AED42
:100E4200EFF582F404FC120AB9120807C082900D71
:100E5200D27409120B7DED33CC33D0F092D525F04C
:0A0E6200A2D57001C313CC13FD22CA
:100B2400E9D2E7C933E833F892D5EDD2E7CD33EC17
:070B340033FC5002B2D52290
:100B3B00EC30E7100FBF000C0EBE00080DBD00041B
:100B4B000BEB6014A2D5EB13FCED92E7FD2274FFC7
:100B5B00FCFDFEFF22E480F8A2D574FF13FC7D8020
:030B6B00E480EF34
:100B6E00C0E0EFFBEEFAEDF9ECF81208F8D0E0F584
:100B7E00F0EFFBEEFAEDF9ECF8120C37A3A3A3A3FA
:100B8E00E8C0E0E9C0E0EAC0E0EBC0E0C0F0120867
:100B9E00F8120C47A3A3A3A3120807D0F0D0E0FBD2
:0D0BAE00D0E0FAD0E0F9D0E0F8D5F0D42284
:100E7800020C57E493A3F8E493A34003F68001F22D
:100E880008DFF48029E493A3F85407240CC8C3337B
:100E9800C4540F4420C8834004F456800146F6DF4A
:100EA800E4800B0102040810204080901031E47E99
:100EB800019360BCA3FF543F30E509541FFEE4933F
:100EC800A360010ECF54C025E060A840B8E493A306
:100ED800FAE493A3F8E493A3C8C582C8CAC583CA31
:100EE800F0A3C8C582C8CAC583CADFE9DEE780BEE9
:01104F0000A0
:100BBB00BB010689828A83E0225002E722BBFE0238
:090BCB00E32289828A83E493226B
:100BD400BC000BBE0029EF8DF084FFADF022E4CC05
:100BE400F875F008EF2FFFEE33FEEC33FCEE9DECCE
:100BF400984005FCEE9DFE0FD5F0E9E4CEFD22ED14
:100C0400F8F5F0EE8420D21CFEADF075F008EF2F5D
:100C1400FFED33FD4007985006D5F0F222C398FD4E
:050C24000FD5F0EA22EB
:0E0C2900C3E49FFFE49EFEE49DFDE49CFC22DC
:100C3700E493FC740193FD740293FE740393FF2203
:100C4700E493F8740193F9740293FA740393FB2203
:00000001FF
