:03000000020910E2
:0C091000787FE4F6D8FD75810A0208B279
:1008370020202045453333372D32303234202020D5
:1008470020202020202020002048415244494B20CE
:0D0857004B4841524957414C2020202000C1
:10080000E4F5A0C282C280C2817F38FE1208EC12D9
:1008100008697F067E001208EC1208697F0C7E00D2
:100820001208EC1208697F017E001208EC120869B8
:070830007F807E000208EC4E
:090864007E001208EC7F047E0006
:10086D00E4FDFCC3ED9FEC9E5015E4FBFA0BBB00C1
:0F087D00010ABA01F8BB7EF50DBD00010C80E445
:01088C002249
:1008EC00C280C281D2828FA07F0A7E0012086DC2A4
:0208FC00822256
:1008FE00D280C281D2828FA07F0A7E0012086DC282
:02090E00822243
:10088D008B088A09890AAB08AA09A90A1208D3603C
:10089D0013050AE50A7002050914F91208D3FF12AF
:0508AD0008FE80E222BC
:1008B2001208007F801208647BFF7A0879371208D9
:1008C2008D7FC01208647BFF7A08794F12088D80F1
:0108D200FE27
:1008D300BB010689828A83E0225002E722BBFE0223
:0908E300E32289828A83E4932256
:00000001FF
