:03000000020F5894
:0C0F5800787FE4F6D8FD758132020F9F0F
:100FE4002020202020692F70203120202020200064
:100FF4002020202020692F70203220202020200053
:1010040020202070726564696374202020002063AE
:101014006C61737320312020200020636C61737332
:0610240020322020200014
:1010AF000408C2100000040C40A00000041040E02F
:0E10BF000000041C00000000042400000000DB
:10102A00E4F5A0C282C280C2817F38FE1210D512B6
:10103A0010667F067E001210D51210667F0C7E00A5
:10104A001210D51210667F017E001210D51210669A
:07105A007F807E000210D52B
:091061007E001210D57F047E0010
:10106A00E4FDFCC3ED9FEC9E5015E4FBFA0BBB00BC
:0F107A00010ABA01F8BB7EF50DBD00010C80E440
:011089002244
:0710CE0075900F7F807E008A
:1010D500C280C281D2828FA07F0A7E0012106AC2AE
:0210E500822265
:1010E700D280C281D2828FA07F0A7E0012106AC28C
:0210F700822253
:10108A008B308A318932AB30AA31A932120C3460E2
:10109A00130532E5327002053114F9120C34FF12CD
:0510AA0010E780E222C6
:080EC2008F2B8E2A8D298C284C
:100ECA00E4FFFE7D207C41AB2BAA2AA929A828127F
:100EDA0008F8120B668E2E8F2F7430252FF52FE40B
:100EEA00352EF52EE4FFFE7DC87C42AB2BAA2AA93B
:100EFA0029A8281208F8120B667C007D0A120C4DEC
:100F0A008C2C8D2D7430252DF52DE4352CF52CE403
:100F1A00FFFE7D7A7C44AB2BAA2AA929A8281208AD
:100F2A00F8120B667C007D0A120C4D8D828C83743C
:100F3A00302582F5827F301210E77F2E1210E7AF3C
:0E0F4A002F1210E7AF2D1210E7AF820210E752
:100CD00012102A1210CE7BFF7A0F79E412108A7F4D
:100CE000887E1312106AAC90E4120B328F1B8E1A9E
:100CF0008D198C181210CE7BFF7A0F79F412108A9E
:100D00007F887E1312106AAC90E4120B328F238E10
:100D1000228D218C20850B17850A168509158508DB
:100D200014AB17AA16A915A814C000C001C002C0B0
:100D300003AF1BAE1AAD19AC18AB0FAA0EA90DA8C4
:100D40000C1208F8D003D002D001D0001208078F8F
:100D5000178E168D158C14AB17AA16A915A814C0DA
:100D600000C001C002C003AF23AE22AD21AC20AB56
:100D700013AA12A911A8101208F8D003D002D001AA
:100D8000D0001208078F178E168D158C14120B17B2
:100D9000120E60E4FBFA7980783F120807A804A9D4
:100DA00005AA06AB07E4FFFE7D807C3F120A018F97
:100DB0001F8E1E8D1D8C1CAB1FAA1EA91DA81CE416
:100DC000FFFE7D807C3F1208038F278E268D258CA9
:100DD000247F801210617BFF7A10791212108A7FB3
:100DE000C01210617BFF7A10791E12108A1210D186
:100DF0007BFF7A10790412108AE4FFFEFDFCAB172A
:100E0000AA16A915A814120A9E7FC07E00500B12C4
:100E100010637BFF7A10791280091210637BFF7ACE
:080E200010791E12108A80FEF9
:10080000020BD2E86480F8E933E83360110460F049
:10081000ED33EC337009E8FCE9FDEAFEEBFF22045E
:1008200060DED3EB9FEA9EE99DE8C2E78CF0C2F759
:1008300095F0400CE8CCF8E9CDF9EACEFAEBCFFB25
:10084000120B9D85D0F05804700320D5B3E80470D6
:10085000075002B2D5020BDC92D5EC0460F7E4CC71
:10086000C0E0C398F8603B94186008400DD0E0FBEE
:10087000020BB4E4FBFAC9FC8028E830E406E4C9C2
:10088000FBE4CAFCE830E305E4C9CACBFCE8540742
:100890006010F8C3E913F9EA13FAEB13FBEC13FC4D
:1008A000D8F130F52FC3E49CFCEF9BFFEE9AFEEDF0
:1008B00099FDD0E0FBEF4E4D4C701222DB03020B92
:1008C000D9EC2CFCEF33FFEE33FEED33FDED30E7DA
:1008D000EB020BB4EF2BFFEE3AFEED39FDD0E0FB5F
:1008E00050130BBB0003020BDCED13FDEE13FEEF08
:0808F00013FFEC13FC020BB432
:1008F800EC4D6011E8497017ED33EC3304600DE4FA
:10090800FCFFFEFD22E933E8330470F8020BD21233
:100918000B9D58046009E4CC248150062850090234
:100928000BDC284003020BD9C0E0EB4A7044B980C5
:1009380006D0E0FB020BC8EF4E701CBD8008EBFF31
:10094800EAFEE9FD80EBE98DF0A4FEE5F00209E19D
:10095800E9CDF9EAFEEBFFEF89F0A4FCE5F0CE89DA
:10096800F0A42EFFE435F0CD89F0A42DFEE435F097
:100978008067EF4E7005BD80D780C3EF8BF0A4ACC5
:10098800F0EE8BF0A42CFCE435F0F8EF8AF0A42C00
:10099800E5F038FCE433CB8DF0A42CFCE5F03BF813
:1009A800EE8AF0A42CFCE5F038F8E433CF89F0A403
:1009B8002CFCE5F038CF3400CE89F0A42FFFE5F009
:1009C8003EFEE433C98DF0A42EFEE5F039CD8AF061
:1009D800A42FFFE5F03EFEE43DFD33D0E0FB5007D9
:1009E8000BBB000F020BDCEC2CFCEF33FFEE33FEED
:0609F800ED33FD020BB41B
:1009FE00020BDCEC5D046005E859047003020BD2B7
:100A0E00120B9D580460F6EC4860F2EC7004FDFE8B
:100A1E00FF22C860DB2481C85009C39860025006CB
:100A2E00020BD99850CAF582E9294B4A7005AB8260
:100A3E00020BC875F0007C1A7880C3EF9BEE9AED1E
:100A4E0099400DC3EF9BFFEE9AFEED99FDE842F043
:100A5E00DC23ACF0D0E0FFD0E0FED0E0FDAB822096
:100A6E00E7101BEB60BAEC2CFCEF33FFEE33FEED20
:100A7E0033FD020BB4E803F830E705C0F075F00063
:100A8E00EF2FFFEE33FEED33FD40B830E7C280AA04
:100A9E0074F8CC6480CCC86480C8F58204604FC3FF
:100AAE00EB9FF5F0EA9E42F0E99D42F0E89C45F09E
:100ABE00603C501DE5825FFFE582D313CB5BCBF428
:100ACE002B5582FB50280ABA002409B90020088051
:100ADE001DE5825BFBE582D313CF5FCFF4C3132FEB
:100AEE005582FF50090EBE00050DBD00010CC3EB73
:100AFE009FF5F0EA9E42F0E99D42F0E89C45F060D9
:090B0E0007CC4820E701B3EC22FA
:100B1700ED33EC33600A047003BD8004ECB2E7FCEC
:010B270022AB
:100B280075F020800E75F010800575F0087D007E48
:100B3800007F003392D530D503120CA2EC3340105D
:100B4800EF33FFEE33FEED33FDEC33FCD5F0ED2251
:0E0B5800E5F0247EA2D513CC92E7CDCEFF228D
:100B6600EDD2E7CD33EC3392D524814006E4FFFE87
:100B7600FDFC22FCE4CFCECDCC24E0501174FF80E6
:100B8600EDC3CC13CCCD13CDCE13CECF13CF047083
:070B9600F030D5DE020CA2D5
:100E280033DA929E35B16011377FE5FE3921848926
:100E38003AAEC3FF3C1D955B3D6358473E75FDF0D8
:100E48003F3172183F800000C2D5020BDC020BD282
:100E5800BD80FA50F3020BD9ED33EC330460F17B1B
:100E68003B7AAA79B8783F1208F8ED33EC3392D57B
:100E7800247B5011A2D570DB500BED448024045024
:100E880004A2D580CEEFFBEEFAEDF9ECF8120B6672
:100E9800EFF582F404FC120B32120807C082900EA0
:100EA800287409120BF6ED33CC33D0F092D525F027
:0A0EB800A2D57001C313CC13FD2274
:100B9D00E9D2E7C933E833F892D5EDD2E7CD33EC9E
:070BAD0033FC5002B2D52217
:100BB400EC30E7100FBF000C0EBE00080DBD0004A2
:100BC4000BEB6014A2D5EB13FCED92E7FD2274FF4E
:100BD400FCFDFEFF22E480F8A2D574FF13FC7D80A7
:030BE400E480EFBB
:100BE700C0E0EFFBEEFAEDF9ECF81208F8D0E0F50B
:100BF700F0EFFBEEFAEDF9ECF8120CB0A3A3A3A308
:100C0700E8C0E0E9C0E0EAC0E0EBC0E0C0F01208ED
:100C1700F8120CC0A3A3A3A3120807D0F0D0E0FBDF
:0D0C2700D0E0FAD0E0F9D0E0F8D5F0D4220A
:100F6400020CD0E493A3F8E493A34003F68001F2C7
:100F740008DFF48029E493A3F85407240CC8C3338E
:100F8400C4540F4420C8834004F456800146F6DF5D
:100F9400E4800B01020408102040809010AFE47E2E
:100FA400019360BCA3FF543F30E509541FFEE49352
:100FB400A360010ECF54C025E060A840B8E493A319
:100FC400FAE493A3F8E493A3C8C582C8CAC583CA44
:100FD400F0A3C8C582C8CAC583CADFE9DEE780BEFC
:0110CD000022
:100C3400BB010689828A83E0225002E722BBFE02BE
:090C4400E32289828A83E49322F1
:100C4D00BC000BBE0029EF8DF084FFADF022E4CC8B
:100C5D00F875F008EF2FFFEE33FEEC33FCEE9DEC54
:100C6D00984005FCEE9DFE0FD5F0E9E4CEFD22ED9A
:100C7D00F8F5F0EE8420D21CFEADF075F008EF2FE4
:100C8D00FFED33FD4007985006D5F0F222C398FDD5
:050C9D000FD5F0EA2272
:0E0CA200C3E49FFFE49EFEE49DFDE49CFC2263
:100CB000E493FC740193FD740293FE740393FF228A
:100CC000E493F8740193F9740293FA740393FB228A
:00000001FF
